{
  "contractName": "PandlesNFT",
  "abi": [
    {
      "inputs": [
        {
          "internalType": "string",
          "name": "name",
          "type": "string"
        },
        {
          "internalType": "string",
          "name": "symbol",
          "type": "string"
        }
      ],
      "stateMutability": "nonpayable",
      "type": "constructor"
    },
    {
      "anonymous": false,
      "inputs": [
        {
          "indexed": true,
          "internalType": "address",
          "name": "owner",
          "type": "address"
        },
        {
          "indexed": true,
          "internalType": "address",
          "name": "approved",
          "type": "address"
        },
        {
          "indexed": true,
          "internalType": "uint256",
          "name": "tokenId",
          "type": "uint256"
        }
      ],
      "name": "Approval",
      "type": "event"
    },
    {
      "anonymous": false,
      "inputs": [
        {
          "indexed": true,
          "internalType": "address",
          "name": "owner",
          "type": "address"
        },
        {
          "indexed": true,
          "internalType": "address",
          "name": "operator",
          "type": "address"
        },
        {
          "indexed": false,
          "internalType": "bool",
          "name": "approved",
          "type": "bool"
        }
      ],
      "name": "ApprovalForAll",
      "type": "event"
    },
    {
      "anonymous": false,
      "inputs": [
        {
          "indexed": true,
          "internalType": "address",
          "name": "previousOwner",
          "type": "address"
        },
        {
          "indexed": true,
          "internalType": "address",
          "name": "newOwner",
          "type": "address"
        }
      ],
      "name": "OwnershipTransferred",
      "type": "event"
    },
    {
      "anonymous": false,
      "inputs": [
        {
          "indexed": true,
          "internalType": "address",
          "name": "from",
          "type": "address"
        },
        {
          "indexed": true,
          "internalType": "address",
          "name": "to",
          "type": "address"
        },
        {
          "indexed": true,
          "internalType": "uint256",
          "name": "tokenId",
          "type": "uint256"
        }
      ],
      "name": "Transfer",
      "type": "event"
    },
    {
      "inputs": [
        {
          "internalType": "address",
          "name": "to",
          "type": "address"
        },
        {
          "internalType": "uint256",
          "name": "tokenId",
          "type": "uint256"
        }
      ],
      "name": "approve",
      "outputs": [],
      "stateMutability": "nonpayable",
      "type": "function"
    },
    {
      "inputs": [
        {
          "internalType": "address",
          "name": "owner",
          "type": "address"
        }
      ],
      "name": "balanceOf",
      "outputs": [
        {
          "internalType": "uint256",
          "name": "",
          "type": "uint256"
        }
      ],
      "stateMutability": "view",
      "type": "function"
    },
    {
      "inputs": [
        {
          "internalType": "uint256",
          "name": "tokenId",
          "type": "uint256"
        }
      ],
      "name": "getApproved",
      "outputs": [
        {
          "internalType": "address",
          "name": "",
          "type": "address"
        }
      ],
      "stateMutability": "view",
      "type": "function"
    },
    {
      "inputs": [
        {
          "internalType": "address",
          "name": "owner",
          "type": "address"
        },
        {
          "internalType": "address",
          "name": "operator",
          "type": "address"
        }
      ],
      "name": "isApprovedForAll",
      "outputs": [
        {
          "internalType": "bool",
          "name": "",
          "type": "bool"
        }
      ],
      "stateMutability": "view",
      "type": "function"
    },
    {
      "inputs": [],
      "name": "name",
      "outputs": [
        {
          "internalType": "string",
          "name": "",
          "type": "string"
        }
      ],
      "stateMutability": "view",
      "type": "function"
    },
    {
      "inputs": [
        {
          "internalType": "uint256",
          "name": "",
          "type": "uint256"
        }
      ],
      "name": "nfts",
      "outputs": [
        {
          "internalType": "uint256",
          "name": "id",
          "type": "uint256"
        },
        {
          "internalType": "string",
          "name": "uri",
          "type": "string"
        },
        {
          "internalType": "uint256",
          "name": "price",
          "type": "uint256"
        },
        {
          "internalType": "bool",
          "name": "isOnSale",
          "type": "bool"
        }
      ],
      "stateMutability": "view",
      "type": "function"
    },
    {
      "inputs": [],
      "name": "owner",
      "outputs": [
        {
          "internalType": "address",
          "name": "",
          "type": "address"
        }
      ],
      "stateMutability": "view",
      "type": "function"
    },
    {
      "inputs": [
        {
          "internalType": "uint256",
          "name": "tokenId",
          "type": "uint256"
        }
      ],
      "name": "ownerOf",
      "outputs": [
        {
          "internalType": "address",
          "name": "",
          "type": "address"
        }
      ],
      "stateMutability": "view",
      "type": "function"
    },
    {
      "inputs": [],
      "name": "renounceOwnership",
      "outputs": [],
      "stateMutability": "nonpayable",
      "type": "function"
    },
    {
      "inputs": [
        {
          "internalType": "address",
          "name": "from",
          "type": "address"
        },
        {
          "internalType": "address",
          "name": "to",
          "type": "address"
        },
        {
          "internalType": "uint256",
          "name": "tokenId",
          "type": "uint256"
        }
      ],
      "name": "safeTransferFrom",
      "outputs": [],
      "stateMutability": "nonpayable",
      "type": "function"
    },
    {
      "inputs": [
        {
          "internalType": "address",
          "name": "from",
          "type": "address"
        },
        {
          "internalType": "address",
          "name": "to",
          "type": "address"
        },
        {
          "internalType": "uint256",
          "name": "tokenId",
          "type": "uint256"
        },
        {
          "internalType": "bytes",
          "name": "data",
          "type": "bytes"
        }
      ],
      "name": "safeTransferFrom",
      "outputs": [],
      "stateMutability": "nonpayable",
      "type": "function"
    },
    {
      "inputs": [
        {
          "internalType": "address",
          "name": "operator",
          "type": "address"
        },
        {
          "internalType": "bool",
          "name": "approved",
          "type": "bool"
        }
      ],
      "name": "setApprovalForAll",
      "outputs": [],
      "stateMutability": "nonpayable",
      "type": "function"
    },
    {
      "inputs": [
        {
          "internalType": "bytes4",
          "name": "interfaceId",
          "type": "bytes4"
        }
      ],
      "name": "supportsInterface",
      "outputs": [
        {
          "internalType": "bool",
          "name": "",
          "type": "bool"
        }
      ],
      "stateMutability": "view",
      "type": "function"
    },
    {
      "inputs": [],
      "name": "symbol",
      "outputs": [
        {
          "internalType": "string",
          "name": "",
          "type": "string"
        }
      ],
      "stateMutability": "view",
      "type": "function"
    },
    {
      "inputs": [],
      "name": "tokenIdCounter",
      "outputs": [
        {
          "internalType": "uint256",
          "name": "",
          "type": "uint256"
        }
      ],
      "stateMutability": "view",
      "type": "function"
    },
    {
      "inputs": [
        {
          "internalType": "address",
          "name": "from",
          "type": "address"
        },
        {
          "internalType": "address",
          "name": "to",
          "type": "address"
        },
        {
          "internalType": "uint256",
          "name": "tokenId",
          "type": "uint256"
        }
      ],
      "name": "transferFrom",
      "outputs": [],
      "stateMutability": "nonpayable",
      "type": "function"
    },
    {
      "inputs": [
        {
          "internalType": "address",
          "name": "newOwner",
          "type": "address"
        }
      ],
      "name": "transferOwnership",
      "outputs": [],
      "stateMutability": "nonpayable",
      "type": "function"
    },
    {
      "inputs": [
        {
          "internalType": "string",
          "name": "uri",
          "type": "string"
        },
        {
          "internalType": "uint256",
          "name": "price",
          "type": "uint256"
        }
      ],
      "name": "createNFT",
      "outputs": [],
      "stateMutability": "nonpayable",
      "type": "function"
    },
    {
      "inputs": [
        {
          "internalType": "uint256",
          "name": "tokenId",
          "type": "uint256"
        },
        {
          "internalType": "string",
          "name": "uri",
          "type": "string"
        }
      ],
      "name": "setTokenURI",
      "outputs": [],
      "stateMutability": "nonpayable",
      "type": "function"
    },
    {
      "inputs": [
        {
          "internalType": "uint256",
          "name": "tokenId",
          "type": "uint256"
        },
        {
          "internalType": "uint256",
          "name": "price",
          "type": "uint256"
        }
      ],
      "name": "setPrice",
      "outputs": [],
      "stateMutability": "nonpayable",
      "type": "function"
    },
    {
      "inputs": [
        {
          "internalType": "uint256",
          "name": "tokenId",
          "type": "uint256"
        }
      ],
      "name": "putOnSale",
      "outputs": [],
      "stateMutability": "nonpayable",
      "type": "function"
    },
    {
      "inputs": [
        {
          "internalType": "uint256",
          "name": "tokenId",
          "type": "uint256"
        }
      ],
      "name": "removeFromSale",
      "outputs": [],
      "stateMutability": "nonpayable",
      "type": "function"
    },
    {
      "inputs": [
        {
          "internalType": "uint256",
          "name": "tokenId",
          "type": "uint256"
        }
      ],
      "name": "buyNFT",
      "outputs": [],
      "stateMutability": "payable",
      "type": "function"
    },
    {
      "inputs": [
        {
          "internalType": "uint256",
          "name": "tokenId",
          "type": "uint256"
        }
      ],
      "name": "tokenURI",
      "outputs": [
        {
          "internalType": "string",
          "name": "",
          "type": "string"
        }
      ],
      "stateMutability": "view",
      "type": "function"
    }
  ],
  "bytecode": "0x60806040523480156200001157600080fd5b50604051620035f1380380620035f183398181016040528101906200003791906200028d565b81818160009080519060200190620000519291906200016b565b5080600190805190602001906200006a9291906200016b565b5050506200008d620000816200009d60201b60201c565b620000a560201b60201c565b6001600781905550505062000470565b600033905090565b6000600660009054906101000a900473ffffffffffffffffffffffffffffffffffffffff16905081600660006101000a81548173ffffffffffffffffffffffffffffffffffffffff021916908373ffffffffffffffffffffffffffffffffffffffff1602179055508173ffffffffffffffffffffffffffffffffffffffff168173ffffffffffffffffffffffffffffffffffffffff167f8be0079c531659141344cd1fd0a4f28419497f9722a3daafe3b4186f6b6457e060405160405180910390a35050565b828054620001799062000395565b90600052602060002090601f0160209004810192826200019d5760008555620001e9565b82601f10620001b857805160ff1916838001178555620001e9565b82800160010185558215620001e9579182015b82811115620001e8578251825591602001919060010190620001cb565b5b509050620001f89190620001fc565b5090565b5b8082111562000217576000816000905550600101620001fd565b5090565b6000620002326200022c8462000329565b62000300565b9050828152602081018484840111156200024b57600080fd5b620002588482856200035f565b509392505050565b600082601f8301126200027257600080fd5b8151620002848482602086016200021b565b91505092915050565b60008060408385031215620002a157600080fd5b600083015167ffffffffffffffff811115620002bc57600080fd5b620002ca8582860162000260565b925050602083015167ffffffffffffffff811115620002e857600080fd5b620002f68582860162000260565b9150509250929050565b60006200030c6200031f565b90506200031a8282620003cb565b919050565b6000604051905090565b600067ffffffffffffffff82111562000347576200034662000430565b5b62000352826200045f565b9050602081019050919050565b60005b838110156200037f57808201518184015260208101905062000362565b838111156200038f576000848401525b50505050565b60006002820490506001821680620003ae57607f821691505b60208210811415620003c557620003c462000401565b5b50919050565b620003d6826200045f565b810181811067ffffffffffffffff82111715620003f857620003f762000430565b5b80604052505050565b7f4e487b7100000000000000000000000000000000000000000000000000000000600052602260045260246000fd5b7f4e487b7100000000000000000000000000000000000000000000000000000000600052604160045260246000fd5b6000601f19601f8301169050919050565b61317180620004806000396000f3fe60806040526004361061014b5760003560e01c806370a08231116100b6578063a22cb4651161006f578063a22cb46514610482578063b88d4fde146104ab578063c87b56dd146104d4578063e985e9c514610511578063f2fde38b1461054e578063f7d97577146105775761014b565b806370a0823114610384578063715018a6146103c15780638da5cb5b146103d857806395d89b411461040357806398bdf6f51461042e5780639dbcfd6f146104595761014b565b806323b872dd1161010857806323b872dd14610270578063265aa6211461029957806326829155146102d957806342842e0e1461030257806351ed82881461032b5780636352211e146103475761014b565b806301ffc9a71461015057806306fdde031461018d578063081812fc146101b8578063095ea7b3146101f55780631361a3b61461021e578063162094c414610247575b600080fd5b34801561015c57600080fd5b5061017760048036038101906101729190612327565b6105a0565b60405161018491906127bc565b60405180910390f35b34801561019957600080fd5b506101a2610682565b6040516101af91906127d7565b60405180910390f35b3480156101c457600080fd5b506101df60048036038101906101da91906123cd565b610714565b6040516101ec9190612755565b60405180910390f35b34801561020157600080fd5b5061021c600480360381019061021791906122eb565b61075a565b005b34801561022a57600080fd5b50610245600480360381019061024091906123cd565b610872565b005b34801561025357600080fd5b5061026e600480360381019061026991906123f6565b6108f4565b005b34801561027c57600080fd5b50610297600480360381019061029291906121e5565b610973565b005b3480156102a557600080fd5b506102c060048036038101906102bb91906123cd565b6109d3565b6040516102d09493929190612a14565b60405180910390f35b3480156102e557600080fd5b5061030060048036038101906102fb9190612379565b610a98565b005b34801561030e57600080fd5b50610329600480360381019061032491906121e5565b610b59565b005b610345600480360381019061034091906123cd565b610b79565b005b34801561035357600080fd5b5061036e600480360381019061036991906123cd565b610d31565b60405161037b9190612755565b60405180910390f35b34801561039057600080fd5b506103ab60048036038101906103a69190612180565b610db8565b6040516103b891906129f9565b60405180910390f35b3480156103cd57600080fd5b506103d6610e70565b005b3480156103e457600080fd5b506103ed610e84565b6040516103fa9190612755565b60405180910390f35b34801561040f57600080fd5b50610418610eae565b60405161042591906127d7565b60405180910390f35b34801561043a57600080fd5b50610443610f40565b60405161045091906129f9565b60405180910390f35b34801561046557600080fd5b50610480600480360381019061047b91906123cd565b610f46565b005b34801561048e57600080fd5b506104a960048036038101906104a491906122af565b610fc8565b005b3480156104b757600080fd5b506104d260048036038101906104cd9190612234565b610fde565b005b3480156104e057600080fd5b506104fb60048036038101906104f691906123cd565b611040565b60405161050891906127d7565b60405180910390f35b34801561051d57600080fd5b50610538600480360381019061053391906121a9565b611130565b60405161054591906127bc565b60405180910390f35b34801561055a57600080fd5b5061057560048036038101906105709190612180565b6111c4565b005b34801561058357600080fd5b5061059e6004803603810190610599919061244a565b611248565b005b60007f80ac58cd000000000000000000000000000000000000000000000000000000007bffffffffffffffffffffffffffffffffffffffffffffffffffffffff1916827bffffffffffffffffffffffffffffffffffffffffffffffffffffffff1916148061066b57507f5b5e139f000000000000000000000000000000000000000000000000000000007bffffffffffffffffffffffffffffffffffffffffffffffffffffffff1916827bffffffffffffffffffffffffffffffffffffffffffffffffffffffff1916145b8061067b575061067a826112b7565b5b9050919050565b60606000805461069190612bd5565b80601f01602080910402602001604051908101604052809291908181526020018280546106bd90612bd5565b801561070a5780601f106106df5761010080835404028352916020019161070a565b820191906000526020600020905b8154815290600101906020018083116106ed57829003601f168201915b5050505050905090565b600061071f82611321565b6004600083815260200190815260200160002060009054906101000a900473ffffffffffffffffffffffffffffffffffffffff169050919050565b600061076582610d31565b90508073ffffffffffffffffffffffffffffffffffffffff168373ffffffffffffffffffffffffffffffffffffffff1614156107d6576040517f08c379a00000000000000000000000000000000000000000000000000000000081526004016107cd906129b9565b60405180910390fd5b8073ffffffffffffffffffffffffffffffffffffffff166107f561136c565b73ffffffffffffffffffffffffffffffffffffffff16148061082457506108238161081e61136c565b611130565b5b610863576040517f08c379a000000000000000000000000000000000000000000000000000000000815260040161085a906129d9565b60405180910390fd5b61086d8383611374565b505050565b61087a61142d565b610883816114ab565b6108c2576040517f08c379a00000000000000000000000000000000000000000000000000000000081526004016108b9906128f9565b60405180910390fd5b60006008600083815260200190815260200160002060030160006101000a81548160ff02191690831515021790555050565b6108fc61142d565b610905826114ab565b610944576040517f08c379a000000000000000000000000000000000000000000000000000000000815260040161093b906128f9565b60405180910390fd5b8060086000848152602001908152602001600020600101908051906020019061096e929190611fa4565b505050565b61098461097e61136c565b826114ec565b6109c3576040517f08c379a00000000000000000000000000000000000000000000000000000000081526004016109ba90612819565b60405180910390fd5b6109ce838383611581565b505050565b60086020528060005260406000206000915090508060000154908060010180546109fc90612bd5565b80601f0160208091040260200160405190810160405280929190818152602001828054610a2890612bd5565b8015610a755780601f10610a4a57610100808354040283529160200191610a75565b820191906000526020600020905b815481529060010190602001808311610a5857829003601f168201915b5050505050908060020154908060030160009054906101000a900460ff16905084565b610aa061142d565b60006007549050610ab1338261187b565b60405180608001604052808281526020018481526020018381526020016000151581525060086000838152602001908152602001600020600082015181600001556020820151816001019080519060200190610b0e929190611fa4565b506040820151816002015560608201518160030160006101000a81548160ff02191690831515021790555090505060076000815480929190610b4f90612c38565b9190505550505050565b610b7483838360405180602001604052806000815250610fde565b505050565b610b82816114ab565b610bc1576040517f08c379a0000000000000000000000000000000000000000000000000000000008152600401610bb8906128f9565b60405180910390fd5b6008600082815260200190815260200160002060030160009054906101000a900460ff16610c24576040517f08c379a0000000000000000000000000000000000000000000000000000000008152600401610c1b906127f9565b60405180910390fd5b6008600082815260200190815260200160002060020154341015610c7d576040517f08c379a0000000000000000000000000000000000000000000000000000000008152600401610c7490612959565b60405180910390fd5b6000610c8882610d31565b90506000339050600060086000858152602001908152602001600020600201549050610cb5838386611581565b60006008600086815260200190815260200160002060030160006101000a81548160ff0219169083151502179055508273ffffffffffffffffffffffffffffffffffffffff166108fc829081150290604051600060405180830381858888f19350505050158015610d2a573d6000803e3d6000fd5b5050505050565b600080610d3d83611899565b9050600073ffffffffffffffffffffffffffffffffffffffff168173ffffffffffffffffffffffffffffffffffffffff161415610daf576040517f08c379a0000000000000000000000000000000000000000000000000000000008152600401610da690612999565b60405180910390fd5b80915050919050565b60008073ffffffffffffffffffffffffffffffffffffffff168273ffffffffffffffffffffffffffffffffffffffff161415610e29576040517f08c379a0000000000000000000000000000000000000000000000000000000008152600401610e2090612919565b60405180910390fd5b600360008373ffffffffffffffffffffffffffffffffffffffff1673ffffffffffffffffffffffffffffffffffffffff168152602001908152602001600020549050919050565b610e7861142d565b610e8260006118d6565b565b6000600660009054906101000a900473ffffffffffffffffffffffffffffffffffffffff16905090565b606060018054610ebd90612bd5565b80601f0160208091040260200160405190810160405280929190818152602001828054610ee990612bd5565b8015610f365780601f10610f0b57610100808354040283529160200191610f36565b820191906000526020600020905b815481529060010190602001808311610f1957829003601f168201915b5050505050905090565b60075481565b610f4e61142d565b610f57816114ab565b610f96576040517f08c379a0000000000000000000000000000000000000000000000000000000008152600401610f8d906128f9565b60405180910390fd5b60016008600083815260200190815260200160002060030160006101000a81548160ff02191690831515021790555050565b610fda610fd361136c565b838361199c565b5050565b610fef610fe961136c565b836114ec565b61102e576040517f08c379a000000000000000000000000000000000000000000000000000000000815260040161102590612819565b60405180910390fd5b61103a84848484611b09565b50505050565b606061104b826114ab565b61108a576040517f08c379a0000000000000000000000000000000000000000000000000000000008152600401611081906128f9565b60405180910390fd5b6008600083815260200190815260200160002060010180546110ab90612bd5565b80601f01602080910402602001604051908101604052809291908181526020018280546110d790612bd5565b80156111245780601f106110f957610100808354040283529160200191611124565b820191906000526020600020905b81548152906001019060200180831161110757829003601f168201915b50505050509050919050565b6000600560008473ffffffffffffffffffffffffffffffffffffffff1673ffffffffffffffffffffffffffffffffffffffff16815260200190815260200160002060008373ffffffffffffffffffffffffffffffffffffffff1673ffffffffffffffffffffffffffffffffffffffff16815260200190815260200160002060009054906101000a900460ff16905092915050565b6111cc61142d565b600073ffffffffffffffffffffffffffffffffffffffff168173ffffffffffffffffffffffffffffffffffffffff16141561123c576040517f08c379a000000000000000000000000000000000000000000000000000000000815260040161123390612859565b60405180910390fd5b611245816118d6565b50565b61125061142d565b611259826114ab565b611298576040517f08c379a000000000000000000000000000000000000000000000000000000000815260040161128f906128f9565b60405180910390fd5b8060086000848152602001908152602001600020600201819055505050565b60007f01ffc9a7000000000000000000000000000000000000000000000000000000007bffffffffffffffffffffffffffffffffffffffffffffffffffffffff1916827bffffffffffffffffffffffffffffffffffffffffffffffffffffffff1916149050919050565b61132a816114ab565b611369576040517f08c379a000000000000000000000000000000000000000000000000000000000815260040161136090612999565b60405180910390fd5b50565b600033905090565b816004600083815260200190815260200160002060006101000a81548173ffffffffffffffffffffffffffffffffffffffff021916908373ffffffffffffffffffffffffffffffffffffffff160217905550808273ffffffffffffffffffffffffffffffffffffffff166113e783610d31565b73ffffffffffffffffffffffffffffffffffffffff167f8c5be1e5ebec7d5bd14f71427d1e84f3dd0314c0f7b2291e5b200ac8c7c3b92560405160405180910390a45050565b61143561136c565b73ffffffffffffffffffffffffffffffffffffffff16611453610e84565b73ffffffffffffffffffffffffffffffffffffffff16146114a9576040517f08c379a00000000000000000000000000000000000000000000000000000000081526004016114a090612979565b60405180910390fd5b565b60008073ffffffffffffffffffffffffffffffffffffffff166114cd83611899565b73ffffffffffffffffffffffffffffffffffffffff1614159050919050565b6000806114f883610d31565b90508073ffffffffffffffffffffffffffffffffffffffff168473ffffffffffffffffffffffffffffffffffffffff16148061153a57506115398185611130565b5b8061157857508373ffffffffffffffffffffffffffffffffffffffff1661156084610714565b73ffffffffffffffffffffffffffffffffffffffff16145b91505092915050565b8273ffffffffffffffffffffffffffffffffffffffff166115a182610d31565b73ffffffffffffffffffffffffffffffffffffffff16146115f7576040517f08c379a00000000000000000000000000000000000000000000000000000000081526004016115ee90612879565b60405180910390fd5b600073ffffffffffffffffffffffffffffffffffffffff168273ffffffffffffffffffffffffffffffffffffffff161415611667576040517f08c379a000000000000000000000000000000000000000000000000000000000815260040161165e906128b9565b60405180910390fd5b6116748383836001611b65565b8273ffffffffffffffffffffffffffffffffffffffff1661169482610d31565b73ffffffffffffffffffffffffffffffffffffffff16146116ea576040517f08c379a00000000000000000000000000000000000000000000000000000000081526004016116e190612879565b60405180910390fd5b6004600082815260200190815260200160002060006101000a81549073ffffffffffffffffffffffffffffffffffffffff02191690556001600360008573ffffffffffffffffffffffffffffffffffffffff1673ffffffffffffffffffffffffffffffffffffffff168152602001908152602001600020600082825403925050819055506001600360008473ffffffffffffffffffffffffffffffffffffffff1673ffffffffffffffffffffffffffffffffffffffff16815260200190815260200160002060008282540192505081905550816002600083815260200190815260200160002060006101000a81548173ffffffffffffffffffffffffffffffffffffffff021916908373ffffffffffffffffffffffffffffffffffffffff160217905550808273ffffffffffffffffffffffffffffffffffffffff168473ffffffffffffffffffffffffffffffffffffffff167fddf252ad1be2c89b69c2b068fc378daa952ba7f163c4a11628f55a4df523b3ef60405160405180910390a46118768383836001611b6b565b505050565b611895828260405180602001604052806000815250611b71565b5050565b60006002600083815260200190815260200160002060009054906101000a900473ffffffffffffffffffffffffffffffffffffffff169050919050565b6000600660009054906101000a900473ffffffffffffffffffffffffffffffffffffffff16905081600660006101000a81548173ffffffffffffffffffffffffffffffffffffffff021916908373ffffffffffffffffffffffffffffffffffffffff1602179055508173ffffffffffffffffffffffffffffffffffffffff168173ffffffffffffffffffffffffffffffffffffffff167f8be0079c531659141344cd1fd0a4f28419497f9722a3daafe3b4186f6b6457e060405160405180910390a35050565b8173ffffffffffffffffffffffffffffffffffffffff168373ffffffffffffffffffffffffffffffffffffffff161415611a0b576040517f08c379a0000000000000000000000000000000000000000000000000000000008152600401611a02906128d9565b60405180910390fd5b80600560008573ffffffffffffffffffffffffffffffffffffffff1673ffffffffffffffffffffffffffffffffffffffff16815260200190815260200160002060008473ffffffffffffffffffffffffffffffffffffffff1673ffffffffffffffffffffffffffffffffffffffff16815260200190815260200160002060006101000a81548160ff0219169083151502179055508173ffffffffffffffffffffffffffffffffffffffff168373ffffffffffffffffffffffffffffffffffffffff167f17307eab39ab6107e8899845ad3d59bd9653f200f220920489ca2b5937696c3183604051611afc91906127bc565b60405180910390a3505050565b611b14848484611581565b611b2084848484611bcc565b611b5f576040517f08c379a0000000000000000000000000000000000000000000000000000000008152600401611b5690612839565b60405180910390fd5b50505050565b50505050565b50505050565b611b7b8383611d63565b611b886000848484611bcc565b611bc7576040517f08c379a0000000000000000000000000000000000000000000000000000000008152600401611bbe90612839565b60405180910390fd5b505050565b6000611bed8473ffffffffffffffffffffffffffffffffffffffff16611f81565b15611d56578373ffffffffffffffffffffffffffffffffffffffff1663150b7a02611c1661136c565b8786866040518563ffffffff1660e01b8152600401611c389493929190612770565b602060405180830381600087803b158015611c5257600080fd5b505af1925050508015611c8357506040513d601f19601f82011682018060405250810190611c809190612350565b60015b611d06573d8060008114611cb3576040519150601f19603f3d011682016040523d82523d6000602084013e611cb8565b606091505b50600081511415611cfe576040517f08c379a0000000000000000000000000000000000000000000000000000000008152600401611cf590612839565b60405180910390fd5b805181602001fd5b63150b7a0260e01b7bffffffffffffffffffffffffffffffffffffffffffffffffffffffff1916817bffffffffffffffffffffffffffffffffffffffffffffffffffffffff191614915050611d5b565b600190505b949350505050565b600073ffffffffffffffffffffffffffffffffffffffff168273ffffffffffffffffffffffffffffffffffffffff161415611dd3576040517f08c379a0000000000000000000000000000000000000000000000000000000008152600401611dca90612939565b60405180910390fd5b611ddc816114ab565b15611e1c576040517f08c379a0000000000000000000000000000000000000000000000000000000008152600401611e1390612899565b60405180910390fd5b611e2a600083836001611b65565b611e33816114ab565b15611e73576040517f08c379a0000000000000000000000000000000000000000000000000000000008152600401611e6a90612899565b60405180910390fd5b6001600360008473ffffffffffffffffffffffffffffffffffffffff1673ffffffffffffffffffffffffffffffffffffffff16815260200190815260200160002060008282540192505081905550816002600083815260200190815260200160002060006101000a81548173ffffffffffffffffffffffffffffffffffffffff021916908373ffffffffffffffffffffffffffffffffffffffff160217905550808273ffffffffffffffffffffffffffffffffffffffff16600073ffffffffffffffffffffffffffffffffffffffff167fddf252ad1be2c89b69c2b068fc378daa952ba7f163c4a11628f55a4df523b3ef60405160405180910390a4611f7d600083836001611b6b565b5050565b6000808273ffffffffffffffffffffffffffffffffffffffff163b119050919050565b828054611fb090612bd5565b90600052602060002090601f016020900481019282611fd25760008555612019565b82601f10611feb57805160ff1916838001178555612019565b82800160010185558215612019579182015b82811115612018578251825591602001919060010190611ffd565b5b509050612026919061202a565b5090565b5b8082111561204357600081600090555060010161202b565b5090565b600061205a61205584612a85565b612a60565b90508281526020810184848401111561207257600080fd5b61207d848285612b93565b509392505050565b600061209861209384612ab6565b612a60565b9050828152602081018484840111156120b057600080fd5b6120bb848285612b93565b509392505050565b6000813590506120d2816130df565b92915050565b6000813590506120e7816130f6565b92915050565b6000813590506120fc8161310d565b92915050565b6000815190506121118161310d565b92915050565b600082601f83011261212857600080fd5b8135612138848260208601612047565b91505092915050565b600082601f83011261215257600080fd5b8135612162848260208601612085565b91505092915050565b60008135905061217a81613124565b92915050565b60006020828403121561219257600080fd5b60006121a0848285016120c3565b91505092915050565b600080604083850312156121bc57600080fd5b60006121ca858286016120c3565b92505060206121db858286016120c3565b9150509250929050565b6000806000606084860312156121fa57600080fd5b6000612208868287016120c3565b9350506020612219868287016120c3565b925050604061222a8682870161216b565b9150509250925092565b6000806000806080858703121561224a57600080fd5b6000612258878288016120c3565b9450506020612269878288016120c3565b935050604061227a8782880161216b565b925050606085013567ffffffffffffffff81111561229757600080fd5b6122a387828801612117565b91505092959194509250565b600080604083850312156122c257600080fd5b60006122d0858286016120c3565b92505060206122e1858286016120d8565b9150509250929050565b600080604083850312156122fe57600080fd5b600061230c858286016120c3565b925050602061231d8582860161216b565b9150509250929050565b60006020828403121561233957600080fd5b6000612347848285016120ed565b91505092915050565b60006020828403121561236257600080fd5b600061237084828501612102565b91505092915050565b6000806040838503121561238c57600080fd5b600083013567ffffffffffffffff8111156123a657600080fd5b6123b285828601612141565b92505060206123c38582860161216b565b9150509250929050565b6000602082840312156123df57600080fd5b60006123ed8482850161216b565b91505092915050565b6000806040838503121561240957600080fd5b60006124178582860161216b565b925050602083013567ffffffffffffffff81111561243457600080fd5b61244085828601612141565b9150509250929050565b6000806040838503121561245d57600080fd5b600061246b8582860161216b565b925050602061247c8582860161216b565b9150509250929050565b61248f81612b1f565b82525050565b61249e81612b31565b82525050565b60006124af82612ae7565b6124b98185612afd565b93506124c9818560208601612ba2565b6124d281612d0e565b840191505092915050565b60006124e882612af2565b6124f28185612b0e565b9350612502818560208601612ba2565b61250b81612d0e565b840191505092915050565b6000612523601283612b0e565b915061252e82612d1f565b602082019050919050565b6000612546602d83612b0e565b915061255182612d48565b604082019050919050565b6000612569603283612b0e565b915061257482612d97565b604082019050919050565b600061258c602683612b0e565b915061259782612de6565b604082019050919050565b60006125af602583612b0e565b91506125ba82612e35565b604082019050919050565b60006125d2601c83612b0e565b91506125dd82612e84565b602082019050919050565b60006125f5602483612b0e565b915061260082612ead565b604082019050919050565b6000612618601983612b0e565b915061262382612efc565b602082019050919050565b600061263b601783612b0e565b915061264682612f25565b602082019050919050565b600061265e602983612b0e565b915061266982612f4e565b604082019050919050565b6000612681602083612b0e565b915061268c82612f9d565b602082019050919050565b60006126a4601483612b0e565b91506126af82612fc6565b602082019050919050565b60006126c7602083612b0e565b91506126d282612fef565b602082019050919050565b60006126ea601883612b0e565b91506126f582613018565b602082019050919050565b600061270d602183612b0e565b915061271882613041565b604082019050919050565b6000612730603d83612b0e565b915061273b82613090565b604082019050919050565b61274f81612b89565b82525050565b600060208201905061276a6000830184612486565b92915050565b60006080820190506127856000830187612486565b6127926020830186612486565b61279f6040830185612746565b81810360608301526127b181846124a4565b905095945050505050565b60006020820190506127d16000830184612495565b92915050565b600060208201905081810360008301526127f181846124dd565b905092915050565b6000602082019050818103600083015261281281612516565b9050919050565b6000602082019050818103600083015261283281612539565b9050919050565b600060208201905081810360008301526128528161255c565b9050919050565b600060208201905081810360008301526128728161257f565b9050919050565b60006020820190508181036000830152612892816125a2565b9050919050565b600060208201905081810360008301526128b2816125c5565b9050919050565b600060208201905081810360008301526128d2816125e8565b9050919050565b600060208201905081810360008301526128f28161260b565b9050919050565b600060208201905081810360008301526129128161262e565b9050919050565b6000602082019050818103600083015261293281612651565b9050919050565b6000602082019050818103600083015261295281612674565b9050919050565b6000602082019050818103600083015261297281612697565b9050919050565b60006020820190508181036000830152612992816126ba565b9050919050565b600060208201905081810360008301526129b2816126dd565b9050919050565b600060208201905081810360008301526129d281612700565b9050919050565b600060208201905081810360008301526129f281612723565b9050919050565b6000602082019050612a0e6000830184612746565b92915050565b6000608082019050612a296000830187612746565b8181036020830152612a3b81866124dd565b9050612a4a6040830185612746565b612a576060830184612495565b95945050505050565b6000612a6a612a7b565b9050612a768282612c07565b919050565b6000604051905090565b600067ffffffffffffffff821115612aa057612a9f612cdf565b5b612aa982612d0e565b9050602081019050919050565b600067ffffffffffffffff821115612ad157612ad0612cdf565b5b612ada82612d0e565b9050602081019050919050565b600081519050919050565b600081519050919050565b600082825260208201905092915050565b600082825260208201905092915050565b6000612b2a82612b69565b9050919050565b60008115159050919050565b60007fffffffff0000000000000000000000000000000000000000000000000000000082169050919050565b600073ffffffffffffffffffffffffffffffffffffffff82169050919050565b6000819050919050565b82818337600083830152505050565b60005b83811015612bc0578082015181840152602081019050612ba5565b83811115612bcf576000848401525b50505050565b60006002820490506001821680612bed57607f821691505b60208210811415612c0157612c00612cb0565b5b50919050565b612c1082612d0e565b810181811067ffffffffffffffff82111715612c2f57612c2e612cdf565b5b80604052505050565b6000612c4382612b89565b91507fffffffffffffffffffffffffffffffffffffffffffffffffffffffffffffffff821415612c7657612c75612c81565b5b600182019050919050565b7f4e487b7100000000000000000000000000000000000000000000000000000000600052601160045260246000fd5b7f4e487b7100000000000000000000000000000000000000000000000000000000600052602260045260246000fd5b7f4e487b7100000000000000000000000000000000000000000000000000000000600052604160045260246000fd5b6000601f19601f8301169050919050565b7f4e4654206973206e6f74206f6e2073616c650000000000000000000000000000600082015250565b7f4552433732313a2063616c6c6572206973206e6f7420746f6b656e206f776e6560008201527f72206f7220617070726f76656400000000000000000000000000000000000000602082015250565b7f4552433732313a207472616e7366657220746f206e6f6e20455243373231526560008201527f63656976657220696d706c656d656e7465720000000000000000000000000000602082015250565b7f4f776e61626c653a206e6577206f776e657220697320746865207a65726f206160008201527f6464726573730000000000000000000000000000000000000000000000000000602082015250565b7f4552433732313a207472616e736665722066726f6d20696e636f72726563742060008201527f6f776e6572000000000000000000000000000000000000000000000000000000602082015250565b7f4552433732313a20746f6b656e20616c7265616479206d696e74656400000000600082015250565b7f4552433732313a207472616e7366657220746f20746865207a65726f2061646460008201527f7265737300000000000000000000000000000000000000000000000000000000602082015250565b7f4552433732313a20617070726f766520746f2063616c6c657200000000000000600082015250565b7f546f6b656e20494420646f6573206e6f74206578697374000000000000000000600082015250565b7f4552433732313a2061646472657373207a65726f206973206e6f74206120766160008201527f6c6964206f776e65720000000000000000000000000000000000000000000000602082015250565b7f4552433732313a206d696e7420746f20746865207a65726f2061646472657373600082015250565b7f496e73756666696369656e74207061796d656e74000000000000000000000000600082015250565b7f4f776e61626c653a2063616c6c6572206973206e6f7420746865206f776e6572600082015250565b7f4552433732313a20696e76616c696420746f6b656e2049440000000000000000600082015250565b7f4552433732313a20617070726f76616c20746f2063757272656e74206f776e6560008201527f7200000000000000000000000000000000000000000000000000000000000000602082015250565b7f4552433732313a20617070726f76652063616c6c6572206973206e6f7420746f60008201527f6b656e206f776e6572206f7220617070726f76656420666f7220616c6c000000602082015250565b6130e881612b1f565b81146130f357600080fd5b50565b6130ff81612b31565b811461310a57600080fd5b50565b61311681612b3d565b811461312157600080fd5b50565b61312d81612b89565b811461313857600080fd5b5056fea264697066735822122050bf59166e1a99ed0d4407ac7fe11e9ed00b187bca9ac9aa433f1a7e0ffcded364736f6c63430008010033",
  "immutableReferences": {},
  "source": "// SPDX-License-Identifier: MIT\r\npragma solidity ^0.8.0;\r\n\r\nimport \"@openzeppelin/contracts/token/ERC721/ERC721.sol\";\r\nimport \"@openzeppelin/contracts/access/Ownable.sol\";\r\n\r\ncontract PandlesNFT is ERC721, Ownable {\r\n    uint256 public tokenIdCounter;\r\n    mapping(uint256 => NFT) public nfts;\r\n\r\n    struct NFT {\r\n        uint256 id;\r\n        string uri;\r\n        uint256 price;\r\n        bool isOnSale;\r\n    }\r\n\r\n    constructor(string memory name, string memory symbol) ERC721(name, symbol) {\r\n        tokenIdCounter = 1;\r\n    }\r\n\r\n    function createNFT(string memory uri, uint256 price) public onlyOwner {\r\n        uint256 tokenId = tokenIdCounter;\r\n        _safeMint(msg.sender, tokenId);\r\n        nfts[tokenId] = NFT(tokenId, uri, price, false);\r\n        tokenIdCounter++;\r\n    }\r\n\r\n    function setTokenURI(uint256 tokenId, string memory uri) public onlyOwner {\r\n        require(_exists(tokenId), \"Token ID does not exist\");\r\n        nfts[tokenId].uri = uri;\r\n    }\r\n\r\n    function setPrice(uint256 tokenId, uint256 price) public onlyOwner {\r\n        require(_exists(tokenId), \"Token ID does not exist\");\r\n        nfts[tokenId].price = price;\r\n    }\r\n\r\n    function putOnSale(uint256 tokenId) public onlyOwner {\r\n        require(_exists(tokenId), \"Token ID does not exist\");\r\n        nfts[tokenId].isOnSale = true;\r\n    }\r\n\r\n    function removeFromSale(uint256 tokenId) public onlyOwner {\r\n        require(_exists(tokenId), \"Token ID does not exist\");\r\n        nfts[tokenId].isOnSale = false;\r\n    }\r\n\r\n    function buyNFT(uint256 tokenId) public payable {\r\n        require(_exists(tokenId), \"Token ID does not exist\");\r\n        require(nfts[tokenId].isOnSale, \"NFT is not on sale\");\r\n        require(msg.value >= nfts[tokenId].price, \"Insufficient payment\");\r\n\r\n        address payable seller = payable(ownerOf(tokenId));\r\n        address buyer = msg.sender;\r\n        uint256 price = nfts[tokenId].price;\r\n\r\n        _transfer(seller, buyer, tokenId);\r\n        nfts[tokenId].isOnSale = false;\r\n\r\n        seller.transfer(price);\r\n    }\r\n\r\n    function tokenURI(uint256 tokenId) public view override returns (string memory) {\r\n        require(_exists(tokenId), \"Token ID does not exist\");\r\n        return nfts[tokenId].uri;\r\n    }\r\n}\r\n",
  "sourcePath": "C:\\Users\\tunde\\pandlesNFT\\contracts\\PandlesNFT.sol",
  "compiler": {
    "name": "solc",
    "version": "0.8.1+commit.df193b15.Emscripten.clang"
  },
  "schemaVersion": "3.4.14",
  "updatedAt": "2023-05-21T20:33:02.968Z",
  "devdoc": {
    "kind": "dev",
    "methods": {
      "approve(address,uint256)": {
        "details": "See {IERC721-approve}."
      },
      "balanceOf(address)": {
        "details": "See {IERC721-balanceOf}."
      },
      "getApproved(uint256)": {
        "details": "See {IERC721-getApproved}."
      },
      "isApprovedForAll(address,address)": {
        "details": "See {IERC721-isApprovedForAll}."
      },
      "name()": {
        "details": "See {IERC721Metadata-name}."
      },
      "owner()": {
        "details": "Returns the address of the current owner."
      },
      "ownerOf(uint256)": {
        "details": "See {IERC721-ownerOf}."
      },
      "renounceOwnership()": {
        "details": "Leaves the contract without owner. It will not be possible to call `onlyOwner` functions anymore. Can only be called by the current owner. NOTE: Renouncing ownership will leave the contract without an owner, thereby removing any functionality that is only available to the owner."
      },
      "safeTransferFrom(address,address,uint256)": {
        "details": "See {IERC721-safeTransferFrom}."
      },
      "safeTransferFrom(address,address,uint256,bytes)": {
        "details": "See {IERC721-safeTransferFrom}."
      },
      "setApprovalForAll(address,bool)": {
        "details": "See {IERC721-setApprovalForAll}."
      },
      "supportsInterface(bytes4)": {
        "details": "See {IERC165-supportsInterface}."
      },
      "symbol()": {
        "details": "See {IERC721Metadata-symbol}."
      },
      "tokenURI(uint256)": {
        "details": "See {IERC721Metadata-tokenURI}."
      },
      "transferFrom(address,address,uint256)": {
        "details": "See {IERC721-transferFrom}."
      },
      "transferOwnership(address)": {
        "details": "Transfers ownership of the contract to a new account (`newOwner`). Can only be called by the current owner."
      }
    },
    "version": 1
  },
  "userdoc": {
    "kind": "user",
    "methods": {},
    "version": 1
  }
}